{
	"data": {
		"bytecode": {
			"linkReferences": {
				"pratice\\pratice.sol": {
					"IterableMapping": [
						{
							"length": 20,
							"start": 94
						},
						{
							"length": 20,
							"start": 205
						},
						{
							"length": 20,
							"start": 317
						},
						{
							"length": 20,
							"start": 429
						},
						{
							"length": 20,
							"start": 541
						},
						{
							"length": 20,
							"start": 657
						},
						{
							"length": 20,
							"start": 803
						},
						{
							"length": 20,
							"start": 958
						},
						{
							"length": 20,
							"start": 1133
						},
						{
							"length": 20,
							"start": 1244
						},
						{
							"length": 20,
							"start": 1420
						},
						{
							"length": 20,
							"start": 1621
						},
						{
							"length": 20,
							"start": 1822
						}
					]
				}
			},
			"object": "608060405234801561001057600080fd5b50610c86806100206000396000f3fe608060405234801561001057600080fd5b506004361061002b5760003560e01c8063d230a0d514610030575b600080fd5b61003861003a565b005b600073__$f056646cb49a84a4e2e860d3d0c851944d$__63bc2b405c90916000806040518463ffffffff1660e01b8152600401610079939291906108f4565b60006040518083038186803b15801561009157600080fd5b505af41580156100a5573d6000803e3d6000fd5b50505050600073__$f056646cb49a84a4e2e860d3d0c851944d$__63bc2b405c9091600160646040518463ffffffff1660e01b81526004016100e99392919061092b565b60006040518083038186803b15801561010157600080fd5b505af4158015610115573d6000803e3d6000fd5b50505050600073__$f056646cb49a84a4e2e860d3d0c851944d$__63bc2b405c9091600260c86040518463ffffffff1660e01b815260040161015993929190610962565b60006040518083038186803b15801561017157600080fd5b505af4158015610185573d6000803e3d6000fd5b50505050600073__$f056646cb49a84a4e2e860d3d0c851944d$__63bc2b405c9091600260c86040518463ffffffff1660e01b81526004016101c993929190610962565b60006040518083038186803b1580156101e157600080fd5b505af41580156101f5573d6000803e3d6000fd5b50505050600073__$f056646cb49a84a4e2e860d3d0c851944d$__63bc2b405c9091600361012c6040518463ffffffff1660e01b815260040161023a93929190610999565b60006040518083038186803b15801561025257600080fd5b505af4158015610266573d6000803e3d6000fd5b5050505060005b600073__$f056646cb49a84a4e2e860d3d0c851944d$__63deb3d89690916040518263ffffffff1660e01b81526004016102a791906108b0565b60206040518083038186803b1580156102bf57600080fd5b505af41580156102d3573d6000803e3d6000fd5b505050506040513d601f19601f820116820180604052508101906102f79190610804565b8110156104485760008073__$f056646cb49a84a4e2e860d3d0c851944d$__63d1aa9e7e9091846040518363ffffffff1660e01b815260040161033b929190610a4b565b60206040518083038186803b15801561035357600080fd5b505af4158015610367573d6000803e3d6000fd5b505050506040513d601f19601f8201168201806040525081019061038b91906107d7565b905060648261039a9190610a74565b600073__$f056646cb49a84a4e2e860d3d0c851944d$__63732a2ccf9091846040518363ffffffff1660e01b81526004016103d69291906108cb565b60206040518083038186803b1580156103ee57600080fd5b505af4158015610402573d6000803e3d6000fd5b505050506040513d601f19601f820116820180604052508101906104269190610804565b1461043457610433610bbf565b5b50808061044090610b76565b91505061026d565b50600073__$f056646cb49a84a4e2e860d3d0c851944d$__634c60db9c909160016040518363ffffffff1660e01b81526004016104869291906108cb565b60006040518083038186803b15801561049e57600080fd5b505af41580156104b2573d6000803e3d6000fd5b505050506003600073__$f056646cb49a84a4e2e860d3d0c851944d$__63deb3d89690916040518263ffffffff1660e01b81526004016104f291906108b0565b60206040518083038186803b15801561050a57600080fd5b505af415801561051e573d6000803e3d6000fd5b505050506040513d601f19601f820116820180604052508101906105429190610804565b146105505761054f610bbf565b5b600073ffffffffffffffffffffffffffffffffffffffff16600073__$f056646cb49a84a4e2e860d3d0c851944d$__63d1aa9e7e909160006040518363ffffffff1660e01b81526004016105a59291906109d0565b60206040518083038186803b1580156105bd57600080fd5b505af41580156105d1573d6000803e3d6000fd5b505050506040513d601f19601f820116820180604052508101906105f591906107d7565b73ffffffffffffffffffffffffffffffffffffffff161461061957610618610bbf565b5b600373ffffffffffffffffffffffffffffffffffffffff16600073__$f056646cb49a84a4e2e860d3d0c851944d$__63d1aa9e7e909160016040518363ffffffff1660e01b815260040161066e9291906109f9565b60206040518083038186803b15801561068657600080fd5b505af415801561069a573d6000803e3d6000fd5b505050506040513d601f19601f820116820180604052508101906106be91906107d7565b73ffffffffffffffffffffffffffffffffffffffff16146106e2576106e1610bbf565b5b600273ffffffffffffffffffffffffffffffffffffffff16600073__$f056646cb49a84a4e2e860d3d0c851944d$__63d1aa9e7e909160026040518363ffffffff1660e01b8152600401610737929190610a22565b60206040518083038186803b15801561074f57600080fd5b505af4158015610763573d6000803e3d6000fd5b505050506040513d601f19601f8201168201806040525081019061078791906107d7565b73ffffffffffffffffffffffffffffffffffffffff16146107ab576107aa610bbf565b5b565b6000815190506107bc81610c22565b92915050565b6000815190506107d181610c39565b92915050565b6000602082840312156107ed576107ec610c1d565b5b60006107fb848285016107ad565b91505092915050565b60006020828403121561081a57610819610c1d565b5b6000610828848285016107c2565b91505092915050565b61083a81610ace565b82525050565b61084981610b0a565b82525050565b61085881610b1c565b82525050565b61086781610b2e565b82525050565b61087681610b40565b82525050565b61088581610b52565b82525050565b61089481610b64565b82525050565b8082525050565b6108aa81610b00565b82525050565b60006020820190506108c5600083018461089a565b92915050565b60006040820190506108e0600083018561089a565b6108ed6020830184610831565b9392505050565b6000606082019050610909600083018661089a565b6109166020830185610831565b6109236040830184610840565b949350505050565b6000606082019050610940600083018661089a565b61094d6020830185610831565b61095a604083018461084f565b949350505050565b6000606082019050610977600083018661089a565b6109846020830185610831565b610991604083018461086d565b949350505050565b60006060820190506109ae600083018661089a565b6109bb6020830185610831565b6109c8604083018461088b565b949350505050565b60006040820190506109e5600083018561089a565b6109f26020830184610840565b9392505050565b6000604082019050610a0e600083018561089a565b610a1b602083018461085e565b9392505050565b6000604082019050610a37600083018561089a565b610a44602083018461087c565b9392505050565b6000604082019050610a60600083018561089a565b610a6d60208301846108a1565b9392505050565b6000610a7f82610b00565b9150610a8a83610b00565b9250817fffffffffffffffffffffffffffffffffffffffffffffffffffffffffffffffff0483118215151615610ac357610ac2610bee565b5b828202905092915050565b6000610ad982610ae0565b9050919050565b600073ffffffffffffffffffffffffffffffffffffffff82169050919050565b6000819050919050565b6000610b1582610b00565b9050919050565b6000610b2782610b00565b9050919050565b6000610b3982610b00565b9050919050565b6000610b4b82610b00565b9050919050565b6000610b5d82610b00565b9050919050565b6000610b6f82610b00565b9050919050565b6000610b8182610b00565b91507fffffffffffffffffffffffffffffffffffffffffffffffffffffffffffffffff821415610bb457610bb3610bee565b5b600182019050919050565b7f4e487b7100000000000000000000000000000000000000000000000000000000600052600160045260246000fd5b7f4e487b7100000000000000000000000000000000000000000000000000000000600052601160045260246000fd5b600080fd5b610c2b81610ace565b8114610c3657600080fd5b50565b610c4281610b00565b8114610c4d57600080fd5b5056fea26469706673582212201dc71a98b7a1662279876eefcad44a1547c76929498873adf6e07d0fbcee6b6a64736f6c63430008060033",
			"opcodes": "PUSH1 0x80 PUSH1 0x40 MSTORE CALLVALUE DUP1 ISZERO PUSH2 0x10 JUMPI PUSH1 0x0 DUP1 REVERT JUMPDEST POP PUSH2 0xC86 DUP1 PUSH2 0x20 PUSH1 0x0 CODECOPY PUSH1 0x0 RETURN INVALID PUSH1 0x80 PUSH1 0x40 MSTORE CALLVALUE DUP1 ISZERO PUSH2 0x10 JUMPI PUSH1 0x0 DUP1 REVERT JUMPDEST POP PUSH1 0x4 CALLDATASIZE LT PUSH2 0x2B JUMPI PUSH1 0x0 CALLDATALOAD PUSH1 0xE0 SHR DUP1 PUSH4 0xD230A0D5 EQ PUSH2 0x30 JUMPI JUMPDEST PUSH1 0x0 DUP1 REVERT JUMPDEST PUSH2 0x38 PUSH2 0x3A JUMP JUMPDEST STOP JUMPDEST PUSH1 0x0 PUSH20 0x0 PUSH4 0xBC2B405C SWAP1 SWAP2 PUSH1 0x0 DUP1 PUSH1 0x40 MLOAD DUP5 PUSH4 0xFFFFFFFF AND PUSH1 0xE0 SHL DUP2 MSTORE PUSH1 0x4 ADD PUSH2 0x79 SWAP4 SWAP3 SWAP2 SWAP1 PUSH2 0x8F4 JUMP JUMPDEST PUSH1 0x0 PUSH1 0x40 MLOAD DUP1 DUP4 SUB DUP2 DUP7 DUP1 EXTCODESIZE ISZERO DUP1 ISZERO PUSH2 0x91 JUMPI PUSH1 0x0 DUP1 REVERT JUMPDEST POP GAS DELEGATECALL ISZERO DUP1 ISZERO PUSH2 0xA5 JUMPI RETURNDATASIZE PUSH1 0x0 DUP1 RETURNDATACOPY RETURNDATASIZE PUSH1 0x0 REVERT JUMPDEST POP POP POP POP PUSH1 0x0 PUSH20 0x0 PUSH4 0xBC2B405C SWAP1 SWAP2 PUSH1 0x1 PUSH1 0x64 PUSH1 0x40 MLOAD DUP5 PUSH4 0xFFFFFFFF AND PUSH1 0xE0 SHL DUP2 MSTORE PUSH1 0x4 ADD PUSH2 0xE9 SWAP4 SWAP3 SWAP2 SWAP1 PUSH2 0x92B JUMP JUMPDEST PUSH1 0x0 PUSH1 0x40 MLOAD DUP1 DUP4 SUB DUP2 DUP7 DUP1 EXTCODESIZE ISZERO DUP1 ISZERO PUSH2 0x101 JUMPI PUSH1 0x0 DUP1 REVERT JUMPDEST POP GAS DELEGATECALL ISZERO DUP1 ISZERO PUSH2 0x115 JUMPI RETURNDATASIZE PUSH1 0x0 DUP1 RETURNDATACOPY RETURNDATASIZE PUSH1 0x0 REVERT JUMPDEST POP POP POP POP PUSH1 0x0 PUSH20 0x0 PUSH4 0xBC2B405C SWAP1 SWAP2 PUSH1 0x2 PUSH1 0xC8 PUSH1 0x40 MLOAD DUP5 PUSH4 0xFFFFFFFF AND PUSH1 0xE0 SHL DUP2 MSTORE PUSH1 0x4 ADD PUSH2 0x159 SWAP4 SWAP3 SWAP2 SWAP1 PUSH2 0x962 JUMP JUMPDEST PUSH1 0x0 PUSH1 0x40 MLOAD DUP1 DUP4 SUB DUP2 DUP7 DUP1 EXTCODESIZE ISZERO DUP1 ISZERO PUSH2 0x171 JUMPI PUSH1 0x0 DUP1 REVERT JUMPDEST POP GAS DELEGATECALL ISZERO DUP1 ISZERO PUSH2 0x185 JUMPI RETURNDATASIZE PUSH1 0x0 DUP1 RETURNDATACOPY RETURNDATASIZE PUSH1 0x0 REVERT JUMPDEST POP POP POP POP PUSH1 0x0 PUSH20 0x0 PUSH4 0xBC2B405C SWAP1 SWAP2 PUSH1 0x2 PUSH1 0xC8 PUSH1 0x40 MLOAD DUP5 PUSH4 0xFFFFFFFF AND PUSH1 0xE0 SHL DUP2 MSTORE PUSH1 0x4 ADD PUSH2 0x1C9 SWAP4 SWAP3 SWAP2 SWAP1 PUSH2 0x962 JUMP JUMPDEST PUSH1 0x0 PUSH1 0x40 MLOAD DUP1 DUP4 SUB DUP2 DUP7 DUP1 EXTCODESIZE ISZERO DUP1 ISZERO PUSH2 0x1E1 JUMPI PUSH1 0x0 DUP1 REVERT JUMPDEST POP GAS DELEGATECALL ISZERO DUP1 ISZERO PUSH2 0x1F5 JUMPI RETURNDATASIZE PUSH1 0x0 DUP1 RETURNDATACOPY RETURNDATASIZE PUSH1 0x0 REVERT JUMPDEST POP POP POP POP PUSH1 0x0 PUSH20 0x0 PUSH4 0xBC2B405C SWAP1 SWAP2 PUSH1 0x3 PUSH2 0x12C PUSH1 0x40 MLOAD DUP5 PUSH4 0xFFFFFFFF AND PUSH1 0xE0 SHL DUP2 MSTORE PUSH1 0x4 ADD PUSH2 0x23A SWAP4 SWAP3 SWAP2 SWAP1 PUSH2 0x999 JUMP JUMPDEST PUSH1 0x0 PUSH1 0x40 MLOAD DUP1 DUP4 SUB DUP2 DUP7 DUP1 EXTCODESIZE ISZERO DUP1 ISZERO PUSH2 0x252 JUMPI PUSH1 0x0 DUP1 REVERT JUMPDEST POP GAS DELEGATECALL ISZERO DUP1 ISZERO PUSH2 0x266 JUMPI RETURNDATASIZE PUSH1 0x0 DUP1 RETURNDATACOPY RETURNDATASIZE PUSH1 0x0 REVERT JUMPDEST POP POP POP POP PUSH1 0x0 JUMPDEST PUSH1 0x0 PUSH20 0x0 PUSH4 0xDEB3D896 SWAP1 SWAP2 PUSH1 0x40 MLOAD DUP3 PUSH4 0xFFFFFFFF AND PUSH1 0xE0 SHL DUP2 MSTORE PUSH1 0x4 ADD PUSH2 0x2A7 SWAP2 SWAP1 PUSH2 0x8B0 JUMP JUMPDEST PUSH1 0x20 PUSH1 0x40 MLOAD DUP1 DUP4 SUB DUP2 DUP7 DUP1 EXTCODESIZE ISZERO DUP1 ISZERO PUSH2 0x2BF JUMPI PUSH1 0x0 DUP1 REVERT JUMPDEST POP GAS DELEGATECALL ISZERO DUP1 ISZERO PUSH2 0x2D3 JUMPI RETURNDATASIZE PUSH1 0x0 DUP1 RETURNDATACOPY RETURNDATASIZE PUSH1 0x0 REVERT JUMPDEST POP POP POP POP PUSH1 0x40 MLOAD RETURNDATASIZE PUSH1 0x1F NOT PUSH1 0x1F DUP3 ADD AND DUP3 ADD DUP1 PUSH1 0x40 MSTORE POP DUP2 ADD SWAP1 PUSH2 0x2F7 SWAP2 SWAP1 PUSH2 0x804 JUMP JUMPDEST DUP2 LT ISZERO PUSH2 0x448 JUMPI PUSH1 0x0 DUP1 PUSH20 0x0 PUSH4 0xD1AA9E7E SWAP1 SWAP2 DUP5 PUSH1 0x40 MLOAD DUP4 PUSH4 0xFFFFFFFF AND PUSH1 0xE0 SHL DUP2 MSTORE PUSH1 0x4 ADD PUSH2 0x33B SWAP3 SWAP2 SWAP1 PUSH2 0xA4B JUMP JUMPDEST PUSH1 0x20 PUSH1 0x40 MLOAD DUP1 DUP4 SUB DUP2 DUP7 DUP1 EXTCODESIZE ISZERO DUP1 ISZERO PUSH2 0x353 JUMPI PUSH1 0x0 DUP1 REVERT JUMPDEST POP GAS DELEGATECALL ISZERO DUP1 ISZERO PUSH2 0x367 JUMPI RETURNDATASIZE PUSH1 0x0 DUP1 RETURNDATACOPY RETURNDATASIZE PUSH1 0x0 REVERT JUMPDEST POP POP POP POP PUSH1 0x40 MLOAD RETURNDATASIZE PUSH1 0x1F NOT PUSH1 0x1F DUP3 ADD AND DUP3 ADD DUP1 PUSH1 0x40 MSTORE POP DUP2 ADD SWAP1 PUSH2 0x38B SWAP2 SWAP1 PUSH2 0x7D7 JUMP JUMPDEST SWAP1 POP PUSH1 0x64 DUP3 PUSH2 0x39A SWAP2 SWAP1 PUSH2 0xA74 JUMP JUMPDEST PUSH1 0x0 PUSH20 0x0 PUSH4 0x732A2CCF SWAP1 SWAP2 DUP5 PUSH1 0x40 MLOAD DUP4 PUSH4 0xFFFFFFFF AND PUSH1 0xE0 SHL DUP2 MSTORE PUSH1 0x4 ADD PUSH2 0x3D6 SWAP3 SWAP2 SWAP1 PUSH2 0x8CB JUMP JUMPDEST PUSH1 0x20 PUSH1 0x40 MLOAD DUP1 DUP4 SUB DUP2 DUP7 DUP1 EXTCODESIZE ISZERO DUP1 ISZERO PUSH2 0x3EE JUMPI PUSH1 0x0 DUP1 REVERT JUMPDEST POP GAS DELEGATECALL ISZERO DUP1 ISZERO PUSH2 0x402 JUMPI RETURNDATASIZE PUSH1 0x0 DUP1 RETURNDATACOPY RETURNDATASIZE PUSH1 0x0 REVERT JUMPDEST POP POP POP POP PUSH1 0x40 MLOAD RETURNDATASIZE PUSH1 0x1F NOT PUSH1 0x1F DUP3 ADD AND DUP3 ADD DUP1 PUSH1 0x40 MSTORE POP DUP2 ADD SWAP1 PUSH2 0x426 SWAP2 SWAP1 PUSH2 0x804 JUMP JUMPDEST EQ PUSH2 0x434 JUMPI PUSH2 0x433 PUSH2 0xBBF JUMP JUMPDEST JUMPDEST POP DUP1 DUP1 PUSH2 0x440 SWAP1 PUSH2 0xB76 JUMP JUMPDEST SWAP2 POP POP PUSH2 0x26D JUMP JUMPDEST POP PUSH1 0x0 PUSH20 0x0 PUSH4 0x4C60DB9C SWAP1 SWAP2 PUSH1 0x1 PUSH1 0x40 MLOAD DUP4 PUSH4 0xFFFFFFFF AND PUSH1 0xE0 SHL DUP2 MSTORE PUSH1 0x4 ADD PUSH2 0x486 SWAP3 SWAP2 SWAP1 PUSH2 0x8CB JUMP JUMPDEST PUSH1 0x0 PUSH1 0x40 MLOAD DUP1 DUP4 SUB DUP2 DUP7 DUP1 EXTCODESIZE ISZERO DUP1 ISZERO PUSH2 0x49E JUMPI PUSH1 0x0 DUP1 REVERT JUMPDEST POP GAS DELEGATECALL ISZERO DUP1 ISZERO PUSH2 0x4B2 JUMPI RETURNDATASIZE PUSH1 0x0 DUP1 RETURNDATACOPY RETURNDATASIZE PUSH1 0x0 REVERT JUMPDEST POP POP POP POP PUSH1 0x3 PUSH1 0x0 PUSH20 0x0 PUSH4 0xDEB3D896 SWAP1 SWAP2 PUSH1 0x40 MLOAD DUP3 PUSH4 0xFFFFFFFF AND PUSH1 0xE0 SHL DUP2 MSTORE PUSH1 0x4 ADD PUSH2 0x4F2 SWAP2 SWAP1 PUSH2 0x8B0 JUMP JUMPDEST PUSH1 0x20 PUSH1 0x40 MLOAD DUP1 DUP4 SUB DUP2 DUP7 DUP1 EXTCODESIZE ISZERO DUP1 ISZERO PUSH2 0x50A JUMPI PUSH1 0x0 DUP1 REVERT JUMPDEST POP GAS DELEGATECALL ISZERO DUP1 ISZERO PUSH2 0x51E JUMPI RETURNDATASIZE PUSH1 0x0 DUP1 RETURNDATACOPY RETURNDATASIZE PUSH1 0x0 REVERT JUMPDEST POP POP POP POP PUSH1 0x40 MLOAD RETURNDATASIZE PUSH1 0x1F NOT PUSH1 0x1F DUP3 ADD AND DUP3 ADD DUP1 PUSH1 0x40 MSTORE POP DUP2 ADD SWAP1 PUSH2 0x542 SWAP2 SWAP1 PUSH2 0x804 JUMP JUMPDEST EQ PUSH2 0x550 JUMPI PUSH2 0x54F PUSH2 0xBBF JUMP JUMPDEST JUMPDEST PUSH1 0x0 PUSH20 0xFFFFFFFFFFFFFFFFFFFFFFFFFFFFFFFFFFFFFFFF AND PUSH1 0x0 PUSH20 0x0 PUSH4 0xD1AA9E7E SWAP1 SWAP2 PUSH1 0x0 PUSH1 0x40 MLOAD DUP4 PUSH4 0xFFFFFFFF AND PUSH1 0xE0 SHL DUP2 MSTORE PUSH1 0x4 ADD PUSH2 0x5A5 SWAP3 SWAP2 SWAP1 PUSH2 0x9D0 JUMP JUMPDEST PUSH1 0x20 PUSH1 0x40 MLOAD DUP1 DUP4 SUB DUP2 DUP7 DUP1 EXTCODESIZE ISZERO DUP1 ISZERO PUSH2 0x5BD JUMPI PUSH1 0x0 DUP1 REVERT JUMPDEST POP GAS DELEGATECALL ISZERO DUP1 ISZERO PUSH2 0x5D1 JUMPI RETURNDATASIZE PUSH1 0x0 DUP1 RETURNDATACOPY RETURNDATASIZE PUSH1 0x0 REVERT JUMPDEST POP POP POP POP PUSH1 0x40 MLOAD RETURNDATASIZE PUSH1 0x1F NOT PUSH1 0x1F DUP3 ADD AND DUP3 ADD DUP1 PUSH1 0x40 MSTORE POP DUP2 ADD SWAP1 PUSH2 0x5F5 SWAP2 SWAP1 PUSH2 0x7D7 JUMP JUMPDEST PUSH20 0xFFFFFFFFFFFFFFFFFFFFFFFFFFFFFFFFFFFFFFFF AND EQ PUSH2 0x619 JUMPI PUSH2 0x618 PUSH2 0xBBF JUMP JUMPDEST JUMPDEST PUSH1 0x3 PUSH20 0xFFFFFFFFFFFFFFFFFFFFFFFFFFFFFFFFFFFFFFFF AND PUSH1 0x0 PUSH20 0x0 PUSH4 0xD1AA9E7E SWAP1 SWAP2 PUSH1 0x1 PUSH1 0x40 MLOAD DUP4 PUSH4 0xFFFFFFFF AND PUSH1 0xE0 SHL DUP2 MSTORE PUSH1 0x4 ADD PUSH2 0x66E SWAP3 SWAP2 SWAP1 PUSH2 0x9F9 JUMP JUMPDEST PUSH1 0x20 PUSH1 0x40 MLOAD DUP1 DUP4 SUB DUP2 DUP7 DUP1 EXTCODESIZE ISZERO DUP1 ISZERO PUSH2 0x686 JUMPI PUSH1 0x0 DUP1 REVERT JUMPDEST POP GAS DELEGATECALL ISZERO DUP1 ISZERO PUSH2 0x69A JUMPI RETURNDATASIZE PUSH1 0x0 DUP1 RETURNDATACOPY RETURNDATASIZE PUSH1 0x0 REVERT JUMPDEST POP POP POP POP PUSH1 0x40 MLOAD RETURNDATASIZE PUSH1 0x1F NOT PUSH1 0x1F DUP3 ADD AND DUP3 ADD DUP1 PUSH1 0x40 MSTORE POP DUP2 ADD SWAP1 PUSH2 0x6BE SWAP2 SWAP1 PUSH2 0x7D7 JUMP JUMPDEST PUSH20 0xFFFFFFFFFFFFFFFFFFFFFFFFFFFFFFFFFFFFFFFF AND EQ PUSH2 0x6E2 JUMPI PUSH2 0x6E1 PUSH2 0xBBF JUMP JUMPDEST JUMPDEST PUSH1 0x2 PUSH20 0xFFFFFFFFFFFFFFFFFFFFFFFFFFFFFFFFFFFFFFFF AND PUSH1 0x0 PUSH20 0x0 PUSH4 0xD1AA9E7E SWAP1 SWAP2 PUSH1 0x2 PUSH1 0x40 MLOAD DUP4 PUSH4 0xFFFFFFFF AND PUSH1 0xE0 SHL DUP2 MSTORE PUSH1 0x4 ADD PUSH2 0x737 SWAP3 SWAP2 SWAP1 PUSH2 0xA22 JUMP JUMPDEST PUSH1 0x20 PUSH1 0x40 MLOAD DUP1 DUP4 SUB DUP2 DUP7 DUP1 EXTCODESIZE ISZERO DUP1 ISZERO PUSH2 0x74F JUMPI PUSH1 0x0 DUP1 REVERT JUMPDEST POP GAS DELEGATECALL ISZERO DUP1 ISZERO PUSH2 0x763 JUMPI RETURNDATASIZE PUSH1 0x0 DUP1 RETURNDATACOPY RETURNDATASIZE PUSH1 0x0 REVERT JUMPDEST POP POP POP POP PUSH1 0x40 MLOAD RETURNDATASIZE PUSH1 0x1F NOT PUSH1 0x1F DUP3 ADD AND DUP3 ADD DUP1 PUSH1 0x40 MSTORE POP DUP2 ADD SWAP1 PUSH2 0x787 SWAP2 SWAP1 PUSH2 0x7D7 JUMP JUMPDEST PUSH20 0xFFFFFFFFFFFFFFFFFFFFFFFFFFFFFFFFFFFFFFFF AND EQ PUSH2 0x7AB JUMPI PUSH2 0x7AA PUSH2 0xBBF JUMP JUMPDEST JUMPDEST JUMP JUMPDEST PUSH1 0x0 DUP2 MLOAD SWAP1 POP PUSH2 0x7BC DUP2 PUSH2 0xC22 JUMP JUMPDEST SWAP3 SWAP2 POP POP JUMP JUMPDEST PUSH1 0x0 DUP2 MLOAD SWAP1 POP PUSH2 0x7D1 DUP2 PUSH2 0xC39 JUMP JUMPDEST SWAP3 SWAP2 POP POP JUMP JUMPDEST PUSH1 0x0 PUSH1 0x20 DUP3 DUP5 SUB SLT ISZERO PUSH2 0x7ED JUMPI PUSH2 0x7EC PUSH2 0xC1D JUMP JUMPDEST JUMPDEST PUSH1 0x0 PUSH2 0x7FB DUP5 DUP3 DUP6 ADD PUSH2 0x7AD JUMP JUMPDEST SWAP2 POP POP SWAP3 SWAP2 POP POP JUMP JUMPDEST PUSH1 0x0 PUSH1 0x20 DUP3 DUP5 SUB SLT ISZERO PUSH2 0x81A JUMPI PUSH2 0x819 PUSH2 0xC1D JUMP JUMPDEST JUMPDEST PUSH1 0x0 PUSH2 0x828 DUP5 DUP3 DUP6 ADD PUSH2 0x7C2 JUMP JUMPDEST SWAP2 POP POP SWAP3 SWAP2 POP POP JUMP JUMPDEST PUSH2 0x83A DUP2 PUSH2 0xACE JUMP JUMPDEST DUP3 MSTORE POP POP JUMP JUMPDEST PUSH2 0x849 DUP2 PUSH2 0xB0A JUMP JUMPDEST DUP3 MSTORE POP POP JUMP JUMPDEST PUSH2 0x858 DUP2 PUSH2 0xB1C JUMP JUMPDEST DUP3 MSTORE POP POP JUMP JUMPDEST PUSH2 0x867 DUP2 PUSH2 0xB2E JUMP JUMPDEST DUP3 MSTORE POP POP JUMP JUMPDEST PUSH2 0x876 DUP2 PUSH2 0xB40 JUMP JUMPDEST DUP3 MSTORE POP POP JUMP JUMPDEST PUSH2 0x885 DUP2 PUSH2 0xB52 JUMP JUMPDEST DUP3 MSTORE POP POP JUMP JUMPDEST PUSH2 0x894 DUP2 PUSH2 0xB64 JUMP JUMPDEST DUP3 MSTORE POP POP JUMP JUMPDEST DUP1 DUP3 MSTORE POP POP JUMP JUMPDEST PUSH2 0x8AA DUP2 PUSH2 0xB00 JUMP JUMPDEST DUP3 MSTORE POP POP JUMP JUMPDEST PUSH1 0x0 PUSH1 0x20 DUP3 ADD SWAP1 POP PUSH2 0x8C5 PUSH1 0x0 DUP4 ADD DUP5 PUSH2 0x89A JUMP JUMPDEST SWAP3 SWAP2 POP POP JUMP JUMPDEST PUSH1 0x0 PUSH1 0x40 DUP3 ADD SWAP1 POP PUSH2 0x8E0 PUSH1 0x0 DUP4 ADD DUP6 PUSH2 0x89A JUMP JUMPDEST PUSH2 0x8ED PUSH1 0x20 DUP4 ADD DUP5 PUSH2 0x831 JUMP JUMPDEST SWAP4 SWAP3 POP POP POP JUMP JUMPDEST PUSH1 0x0 PUSH1 0x60 DUP3 ADD SWAP1 POP PUSH2 0x909 PUSH1 0x0 DUP4 ADD DUP7 PUSH2 0x89A JUMP JUMPDEST PUSH2 0x916 PUSH1 0x20 DUP4 ADD DUP6 PUSH2 0x831 JUMP JUMPDEST PUSH2 0x923 PUSH1 0x40 DUP4 ADD DUP5 PUSH2 0x840 JUMP JUMPDEST SWAP5 SWAP4 POP POP POP POP JUMP JUMPDEST PUSH1 0x0 PUSH1 0x60 DUP3 ADD SWAP1 POP PUSH2 0x940 PUSH1 0x0 DUP4 ADD DUP7 PUSH2 0x89A JUMP JUMPDEST PUSH2 0x94D PUSH1 0x20 DUP4 ADD DUP6 PUSH2 0x831 JUMP JUMPDEST PUSH2 0x95A PUSH1 0x40 DUP4 ADD DUP5 PUSH2 0x84F JUMP JUMPDEST SWAP5 SWAP4 POP POP POP POP JUMP JUMPDEST PUSH1 0x0 PUSH1 0x60 DUP3 ADD SWAP1 POP PUSH2 0x977 PUSH1 0x0 DUP4 ADD DUP7 PUSH2 0x89A JUMP JUMPDEST PUSH2 0x984 PUSH1 0x20 DUP4 ADD DUP6 PUSH2 0x831 JUMP JUMPDEST PUSH2 0x991 PUSH1 0x40 DUP4 ADD DUP5 PUSH2 0x86D JUMP JUMPDEST SWAP5 SWAP4 POP POP POP POP JUMP JUMPDEST PUSH1 0x0 PUSH1 0x60 DUP3 ADD SWAP1 POP PUSH2 0x9AE PUSH1 0x0 DUP4 ADD DUP7 PUSH2 0x89A JUMP JUMPDEST PUSH2 0x9BB PUSH1 0x20 DUP4 ADD DUP6 PUSH2 0x831 JUMP JUMPDEST PUSH2 0x9C8 PUSH1 0x40 DUP4 ADD DUP5 PUSH2 0x88B JUMP JUMPDEST SWAP5 SWAP4 POP POP POP POP JUMP JUMPDEST PUSH1 0x0 PUSH1 0x40 DUP3 ADD SWAP1 POP PUSH2 0x9E5 PUSH1 0x0 DUP4 ADD DUP6 PUSH2 0x89A JUMP JUMPDEST PUSH2 0x9F2 PUSH1 0x20 DUP4 ADD DUP5 PUSH2 0x840 JUMP JUMPDEST SWAP4 SWAP3 POP POP POP JUMP JUMPDEST PUSH1 0x0 PUSH1 0x40 DUP3 ADD SWAP1 POP PUSH2 0xA0E PUSH1 0x0 DUP4 ADD DUP6 PUSH2 0x89A JUMP JUMPDEST PUSH2 0xA1B PUSH1 0x20 DUP4 ADD DUP5 PUSH2 0x85E JUMP JUMPDEST SWAP4 SWAP3 POP POP POP JUMP JUMPDEST PUSH1 0x0 PUSH1 0x40 DUP3 ADD SWAP1 POP PUSH2 0xA37 PUSH1 0x0 DUP4 ADD DUP6 PUSH2 0x89A JUMP JUMPDEST PUSH2 0xA44 PUSH1 0x20 DUP4 ADD DUP5 PUSH2 0x87C JUMP JUMPDEST SWAP4 SWAP3 POP POP POP JUMP JUMPDEST PUSH1 0x0 PUSH1 0x40 DUP3 ADD SWAP1 POP PUSH2 0xA60 PUSH1 0x0 DUP4 ADD DUP6 PUSH2 0x89A JUMP JUMPDEST PUSH2 0xA6D PUSH1 0x20 DUP4 ADD DUP5 PUSH2 0x8A1 JUMP JUMPDEST SWAP4 SWAP3 POP POP POP JUMP JUMPDEST PUSH1 0x0 PUSH2 0xA7F DUP3 PUSH2 0xB00 JUMP JUMPDEST SWAP2 POP PUSH2 0xA8A DUP4 PUSH2 0xB00 JUMP JUMPDEST SWAP3 POP DUP2 PUSH32 0xFFFFFFFFFFFFFFFFFFFFFFFFFFFFFFFFFFFFFFFFFFFFFFFFFFFFFFFFFFFFFFFF DIV DUP4 GT DUP3 ISZERO ISZERO AND ISZERO PUSH2 0xAC3 JUMPI PUSH2 0xAC2 PUSH2 0xBEE JUMP JUMPDEST JUMPDEST DUP3 DUP3 MUL SWAP1 POP SWAP3 SWAP2 POP POP JUMP JUMPDEST PUSH1 0x0 PUSH2 0xAD9 DUP3 PUSH2 0xAE0 JUMP JUMPDEST SWAP1 POP SWAP2 SWAP1 POP JUMP JUMPDEST PUSH1 0x0 PUSH20 0xFFFFFFFFFFFFFFFFFFFFFFFFFFFFFFFFFFFFFFFF DUP3 AND SWAP1 POP SWAP2 SWAP1 POP JUMP JUMPDEST PUSH1 0x0 DUP2 SWAP1 POP SWAP2 SWAP1 POP JUMP JUMPDEST PUSH1 0x0 PUSH2 0xB15 DUP3 PUSH2 0xB00 JUMP JUMPDEST SWAP1 POP SWAP2 SWAP1 POP JUMP JUMPDEST PUSH1 0x0 PUSH2 0xB27 DUP3 PUSH2 0xB00 JUMP JUMPDEST SWAP1 POP SWAP2 SWAP1 POP JUMP JUMPDEST PUSH1 0x0 PUSH2 0xB39 DUP3 PUSH2 0xB00 JUMP JUMPDEST SWAP1 POP SWAP2 SWAP1 POP JUMP JUMPDEST PUSH1 0x0 PUSH2 0xB4B DUP3 PUSH2 0xB00 JUMP JUMPDEST SWAP1 POP SWAP2 SWAP1 POP JUMP JUMPDEST PUSH1 0x0 PUSH2 0xB5D DUP3 PUSH2 0xB00 JUMP JUMPDEST SWAP1 POP SWAP2 SWAP1 POP JUMP JUMPDEST PUSH1 0x0 PUSH2 0xB6F DUP3 PUSH2 0xB00 JUMP JUMPDEST SWAP1 POP SWAP2 SWAP1 POP JUMP JUMPDEST PUSH1 0x0 PUSH2 0xB81 DUP3 PUSH2 0xB00 JUMP JUMPDEST SWAP2 POP PUSH32 0xFFFFFFFFFFFFFFFFFFFFFFFFFFFFFFFFFFFFFFFFFFFFFFFFFFFFFFFFFFFFFFFF DUP3 EQ ISZERO PUSH2 0xBB4 JUMPI PUSH2 0xBB3 PUSH2 0xBEE JUMP JUMPDEST JUMPDEST PUSH1 0x1 DUP3 ADD SWAP1 POP SWAP2 SWAP1 POP JUMP JUMPDEST PUSH32 0x4E487B7100000000000000000000000000000000000000000000000000000000 PUSH1 0x0 MSTORE PUSH1 0x1 PUSH1 0x4 MSTORE PUSH1 0x24 PUSH1 0x0 REVERT JUMPDEST PUSH32 0x4E487B7100000000000000000000000000000000000000000000000000000000 PUSH1 0x0 MSTORE PUSH1 0x11 PUSH1 0x4 MSTORE PUSH1 0x24 PUSH1 0x0 REVERT JUMPDEST PUSH1 0x0 DUP1 REVERT JUMPDEST PUSH2 0xC2B DUP2 PUSH2 0xACE JUMP JUMPDEST DUP2 EQ PUSH2 0xC36 JUMPI PUSH1 0x0 DUP1 REVERT JUMPDEST POP JUMP JUMPDEST PUSH2 0xC42 DUP2 PUSH2 0xB00 JUMP JUMPDEST DUP2 EQ PUSH2 0xC4D JUMPI PUSH1 0x0 DUP1 REVERT JUMPDEST POP JUMP INVALID LOG2 PUSH5 0x6970667358 0x22 SLT KECCAK256 SAR 0xC7 BYTE SWAP9 0xB7 LOG1 PUSH7 0x2279876EEFCAD4 0x4A ISZERO SELFBALANCE 0xC7 PUSH10 0x29498873ADF6E07D0FBC 0xEE PUSH12 0x6A64736F6C63430008060033 "
		},
		"gasEstimates": {
			"creation": {
				"codeDepositCost": "641200",
				"executionCost": "676",
				"totalCost": "641876"
			},
			"external": {
				"testIterableMap()": "infinite"
			}
		},
		"methodIdentifiers": {
			"testIterableMap()": "d230a0d5"
		}
	},
	"abi": [
		{
			"inputs": [],
			"name": "testIterableMap",
			"outputs": [],
			"stateMutability": "nonpayable",
			"type": "function"
		}
	]
}